{
  "contractName": "GalaxyToken",
  "abi": [
    {
      "inputs": [],
      "stateMutability": "nonpayable",
      "type": "constructor"
    },
    {
      "anonymous": false,
      "inputs": [
        {
          "indexed": true,
          "internalType": "address",
          "name": "owner",
          "type": "address"
        },
        {
          "indexed": true,
          "internalType": "address",
          "name": "spender",
          "type": "address"
        },
        {
          "indexed": false,
          "internalType": "uint256",
          "name": "value",
          "type": "uint256"
        }
      ],
      "name": "Approval",
      "type": "event"
    },
    {
      "anonymous": false,
      "inputs": [
        {
          "indexed": true,
          "internalType": "address",
          "name": "previousOwner",
          "type": "address"
        },
        {
          "indexed": true,
          "internalType": "address",
          "name": "newOwner",
          "type": "address"
        }
      ],
      "name": "OwnershipTransferred",
      "type": "event"
    },
    {
      "anonymous": false,
      "inputs": [
        {
          "indexed": true,
          "internalType": "address",
          "name": "from",
          "type": "address"
        },
        {
          "indexed": true,
          "internalType": "address",
          "name": "to",
          "type": "address"
        },
        {
          "indexed": false,
          "internalType": "uint256",
          "name": "value",
          "type": "uint256"
        }
      ],
      "name": "Transfer",
      "type": "event"
    },
    {
      "stateMutability": "payable",
      "type": "fallback"
    },
    {
      "inputs": [
        {
          "internalType": "address",
          "name": "owner",
          "type": "address"
        },
        {
          "internalType": "address",
          "name": "spender",
          "type": "address"
        }
      ],
      "name": "allowance",
      "outputs": [
        {
          "internalType": "uint256",
          "name": "",
          "type": "uint256"
        }
      ],
      "stateMutability": "view",
      "type": "function"
    },
    {
      "inputs": [
        {
          "internalType": "address",
          "name": "spender",
          "type": "address"
        },
        {
          "internalType": "uint256",
          "name": "amount",
          "type": "uint256"
        }
      ],
      "name": "approve",
      "outputs": [
        {
          "internalType": "bool",
          "name": "",
          "type": "bool"
        }
      ],
      "stateMutability": "nonpayable",
      "type": "function"
    },
    {
      "inputs": [
        {
          "internalType": "address",
          "name": "account",
          "type": "address"
        }
      ],
      "name": "balanceOf",
      "outputs": [
        {
          "internalType": "uint256",
          "name": "",
          "type": "uint256"
        }
      ],
      "stateMutability": "view",
      "type": "function"
    },
    {
      "inputs": [],
      "name": "decimals",
      "outputs": [
        {
          "internalType": "uint8",
          "name": "",
          "type": "uint8"
        }
      ],
      "stateMutability": "view",
      "type": "function"
    },
    {
      "inputs": [
        {
          "internalType": "address",
          "name": "spender",
          "type": "address"
        },
        {
          "internalType": "uint256",
          "name": "subtractedValue",
          "type": "uint256"
        }
      ],
      "name": "decreaseAllowance",
      "outputs": [
        {
          "internalType": "bool",
          "name": "",
          "type": "bool"
        }
      ],
      "stateMutability": "nonpayable",
      "type": "function"
    },
    {
      "inputs": [
        {
          "internalType": "address",
          "name": "spender",
          "type": "address"
        },
        {
          "internalType": "uint256",
          "name": "addedValue",
          "type": "uint256"
        }
      ],
      "name": "increaseAllowance",
      "outputs": [
        {
          "internalType": "bool",
          "name": "",
          "type": "bool"
        }
      ],
      "stateMutability": "nonpayable",
      "type": "function"
    },
    {
      "inputs": [],
      "name": "name",
      "outputs": [
        {
          "internalType": "string",
          "name": "",
          "type": "string"
        }
      ],
      "stateMutability": "view",
      "type": "function"
    },
    {
      "inputs": [],
      "name": "owner",
      "outputs": [
        {
          "internalType": "address",
          "name": "",
          "type": "address"
        }
      ],
      "stateMutability": "view",
      "type": "function"
    },
    {
      "inputs": [],
      "name": "renounceOwnership",
      "outputs": [],
      "stateMutability": "nonpayable",
      "type": "function"
    },
    {
      "inputs": [],
      "name": "symbol",
      "outputs": [
        {
          "internalType": "string",
          "name": "",
          "type": "string"
        }
      ],
      "stateMutability": "view",
      "type": "function"
    },
    {
      "inputs": [],
      "name": "totalSupply",
      "outputs": [
        {
          "internalType": "uint256",
          "name": "",
          "type": "uint256"
        }
      ],
      "stateMutability": "view",
      "type": "function"
    },
    {
      "inputs": [
        {
          "internalType": "address",
          "name": "recipient",
          "type": "address"
        },
        {
          "internalType": "uint256",
          "name": "amount",
          "type": "uint256"
        }
      ],
      "name": "transfer",
      "outputs": [
        {
          "internalType": "bool",
          "name": "",
          "type": "bool"
        }
      ],
      "stateMutability": "nonpayable",
      "type": "function"
    },
    {
      "inputs": [
        {
          "internalType": "address",
          "name": "sender",
          "type": "address"
        },
        {
          "internalType": "address",
          "name": "recipient",
          "type": "address"
        },
        {
          "internalType": "uint256",
          "name": "amount",
          "type": "uint256"
        }
      ],
      "name": "transferFrom",
      "outputs": [
        {
          "internalType": "bool",
          "name": "",
          "type": "bool"
        }
      ],
      "stateMutability": "nonpayable",
      "type": "function"
    },
    {
      "inputs": [
        {
          "internalType": "address",
          "name": "newOwner",
          "type": "address"
        }
      ],
      "name": "transferOwnership",
      "outputs": [],
      "stateMutability": "nonpayable",
      "type": "function"
    },
    {
      "stateMutability": "payable",
      "type": "receive"
    },
    {
      "inputs": [],
      "name": "getTokens",
      "outputs": [],
      "stateMutability": "payable",
      "type": "function"
    },
    {
      "inputs": [
        {
          "internalType": "address",
          "name": "recipient",
          "type": "address"
        },
        {
          "internalType": "uint256",
          "name": "amount",
          "type": "uint256"
        }
      ],
      "name": "transferfun",
      "outputs": [],
      "stateMutability": "nonpayable",
      "type": "function"
    },
    {
      "inputs": [
        {
          "internalType": "uint256",
          "name": "_rate",
          "type": "uint256"
        }
      ],
      "name": "changePrice",
      "outputs": [],
      "stateMutability": "nonpayable",
      "type": "function"
    }
  ],
  "bytecode": "0x60806040527116f578c4e0a060b5be2947b3c800000000006007553480156200002757600080fd5b506040518060400160405280600681526020017f47616c61787900000000000000000000000000000000000000000000000000008152506040518060400160405280600381526020017f47585900000000000000000000000000000000000000000000000000000000008152508160039080519060200190620000ac92919062000399565b508060049080519060200190620000c592919062000399565b505050620000e8620000dc6200013f60201b60201c565b6200014760201b60201c565b6200012a33620000fd6200020d60201b60201c565b60ff16600a6200010e919062000589565b620f42406200011e9190620006c6565b6200021660201b60201c565b606460068190555042600881905550620007fb565b600033905090565b6000600560009054906101000a900473ffffffffffffffffffffffffffffffffffffffff16905081600560006101000a81548173ffffffffffffffffffffffffffffffffffffffff021916908373ffffffffffffffffffffffffffffffffffffffff1602179055508173ffffffffffffffffffffffffffffffffffffffff168173ffffffffffffffffffffffffffffffffffffffff167f8be0079c531659141344cd1fd0a4f28419497f9722a3daafe3b4186f6b6457e060405160405180910390a35050565b60006012905090565b600073ffffffffffffffffffffffffffffffffffffffff168273ffffffffffffffffffffffffffffffffffffffff16141562000289576040517f08c379a0000000000000000000000000000000000000000000000000000000008152600401620002809062000481565b60405180910390fd5b6200029d600083836200038f60201b60201c565b8060026000828254620002b19190620004d1565b92505081905550806000808473ffffffffffffffffffffffffffffffffffffffff1673ffffffffffffffffffffffffffffffffffffffff1681526020019081526020016000206000828254620003089190620004d1565b925050819055508173ffffffffffffffffffffffffffffffffffffffff16600073ffffffffffffffffffffffffffffffffffffffff167fddf252ad1be2c89b69c2b068fc378daa952ba7f163c4a11628f55a4df523b3ef836040516200036f9190620004a3565b60405180910390a36200038b600083836200039460201b60201c565b5050565b505050565b505050565b828054620003a79062000731565b90600052602060002090601f016020900481019282620003cb576000855562000417565b82601f10620003e657805160ff191683800117855562000417565b8280016001018555821562000417579182015b8281111562000416578251825591602001919060010190620003f9565b5b5090506200042691906200042a565b5090565b5b80821115620004455760008160009055506001016200042b565b5090565b600062000458601f83620004c0565b91506200046582620007d2565b602082019050919050565b6200047b8162000727565b82525050565b600060208201905081810360008301526200049c8162000449565b9050919050565b6000602082019050620004ba600083018462000470565b92915050565b600082825260208201905092915050565b6000620004de8262000727565b9150620004eb8362000727565b9250827fffffffffffffffffffffffffffffffffffffffffffffffffffffffffffffffff0382111562000523576200052262000767565b5b828201905092915050565b6000808291508390505b6001851115620005805780860481111562000558576200055762000767565b5b6001851615620005685780820291505b80810290506200057885620007c5565b945062000538565b94509492505050565b6000620005968262000727565b9150620005a38362000727565b9250620005d27fffffffffffffffffffffffffffffffffffffffffffffffffffffffffffffffff8484620005da565b905092915050565b600082620005ec5760019050620006bf565b81620005fc5760009050620006bf565b8160018114620006155760028114620006205762000656565b6001915050620006bf565b60ff84111562000635576200063462000767565b5b8360020a9150848211156200064f576200064e62000767565b5b50620006bf565b5060208310610133831016604e8410600b8410161715620006905782820a9050838111156200068a576200068962000767565b5b620006bf565b6200069f84848460016200052e565b92509050818404811115620006b957620006b862000767565b5b81810290505b9392505050565b6000620006d38262000727565b9150620006e08362000727565b9250817fffffffffffffffffffffffffffffffffffffffffffffffffffffffffffffffff04831182151516156200071c576200071b62000767565b5b828202905092915050565b6000819050919050565b600060028204905060018216806200074a57607f821691505b6020821081141562000761576200076062000796565b5b50919050565b7f4e487b7100000000000000000000000000000000000000000000000000000000600052601160045260246000fd5b7f4e487b7100000000000000000000000000000000000000000000000000000000600052602260045260246000fd5b60008160011c9050919050565b7f45524332303a206d696e7420746f20746865207a65726f206164647265737300600082015250565b611dbc806200080b6000396000f3fe6080604052600436106101025760003560e01c8063715018a611610095578063a457c2d711610064578063a457c2d714610376578063a9059cbb146103b3578063aa6ca808146103f0578063dd62ed3e146103fa578063f2fde38b1461043757610109565b8063715018a6146102e05780638da5cb5b146102f757806395d89b4114610322578063a2b40d191461034d57610109565b806323fa36f6116100d157806323fa36f614610212578063313ce5671461023b578063395093511461026657806370a08231146102a357610109565b806306fdde0314610142578063095ea7b31461016d57806318160ddd146101aa57806323b872dd146101d557610109565b3661010957005b6000341161011657600080fd5b61014033670de0b6b3a76400006006543461013191906118b9565b61013b91906118b9565b610460565b005b34801561014e57600080fd5b506101576105c0565b604051610164919061166f565b60405180910390f35b34801561017957600080fd5b50610194600480360381019061018f91906113bb565b610652565b6040516101a19190611654565b60405180910390f35b3480156101b657600080fd5b506101bf610670565b6040516101cc9190611811565b60405180910390f35b3480156101e157600080fd5b506101fc60048036038101906101f7919061136c565b61067a565b6040516102099190611654565b60405180910390f35b34801561021e57600080fd5b50610239600480360381019061023491906113bb565b610772565b005b34801561024757600080fd5b506102506107db565b60405161025d919061182c565b60405180910390f35b34801561027257600080fd5b5061028d600480360381019061028891906113bb565b6107e4565b60405161029a9190611654565b60405180910390f35b3480156102af57600080fd5b506102ca60048036038101906102c59190611307565b610890565b6040516102d79190611811565b60405180910390f35b3480156102ec57600080fd5b506102f56108d8565b005b34801561030357600080fd5b5061030c610960565b6040516103199190611639565b60405180910390f35b34801561032e57600080fd5b5061033761098a565b604051610344919061166f565b60405180910390f35b34801561035957600080fd5b50610374600480360381019061036f91906113f7565b610a1c565b005b34801561038257600080fd5b5061039d600480360381019061039891906113bb565b610aa2565b6040516103aa9190611654565b60405180910390f35b3480156103bf57600080fd5b506103da60048036038101906103d591906113bb565b610b8d565b6040516103e79190611654565b60405180910390f35b6103f8610bab565b005b34801561040657600080fd5b50610421600480360381019061041c9190611330565b610c3a565b60405161042e9190611811565b60405180910390f35b34801561044357600080fd5b5061045e60048036038101906104599190611307565b610cc1565b005b600073ffffffffffffffffffffffffffffffffffffffff168273ffffffffffffffffffffffffffffffffffffffff1614156104d0576040517f08c379a00000000000000000000000000000000000000000000000000000000081526004016104c7906117f1565b60405180910390fd5b6104dc60008383610db9565b80600260008282546104ee9190611863565b92505081905550806000808473ffffffffffffffffffffffffffffffffffffffff1673ffffffffffffffffffffffffffffffffffffffff16815260200190815260200160002060008282546105439190611863565b925050819055508173ffffffffffffffffffffffffffffffffffffffff16600073ffffffffffffffffffffffffffffffffffffffff167fddf252ad1be2c89b69c2b068fc378daa952ba7f163c4a11628f55a4df523b3ef836040516105a89190611811565b60405180910390a36105bc60008383610dbe565b5050565b6060600380546105cf9061199b565b80601f01602080910402602001604051908101604052809291908181526020018280546105fb9061199b565b80156106485780601f1061061d57610100808354040283529160200191610648565b820191906000526020600020905b81548152906001019060200180831161062b57829003601f168201915b5050505050905090565b600061066661065f610dc3565b8484610dcb565b6001905092915050565b6000600254905090565b6000610687848484610f96565b6000600160008673ffffffffffffffffffffffffffffffffffffffff1673ffffffffffffffffffffffffffffffffffffffff16815260200190815260200160002060006106d2610dc3565b73ffffffffffffffffffffffffffffffffffffffff1673ffffffffffffffffffffffffffffffffffffffff16815260200190815260200160002054905082811015610752576040517f08c379a000000000000000000000000000000000000000000000000000000000815260040161074990611731565b60405180910390fd5b6107668561075e610dc3565b858403610dcb565b60019150509392505050565b62278d006008546107839190611863565b4210156107c5576040517f08c379a00000000000000000000000000000000000000000000000000000000081526004016107bc90611771565b60405180910390fd5b6107d76107d0610dc3565b8383610f96565b5050565b60006012905090565b60006108866107f1610dc3565b8484600160006107ff610dc3565b73ffffffffffffffffffffffffffffffffffffffff1673ffffffffffffffffffffffffffffffffffffffff16815260200190815260200160002060008873ffffffffffffffffffffffffffffffffffffffff1673ffffffffffffffffffffffffffffffffffffffff168152602001908152602001600020546108819190611863565b610dcb565b6001905092915050565b60008060008373ffffffffffffffffffffffffffffffffffffffff1673ffffffffffffffffffffffffffffffffffffffff168152602001908152602001600020549050919050565b6108e0610dc3565b73ffffffffffffffffffffffffffffffffffffffff166108fe610960565b73ffffffffffffffffffffffffffffffffffffffff1614610954576040517f08c379a000000000000000000000000000000000000000000000000000000000815260040161094b90611751565b60405180910390fd5b61095e6000611217565b565b6000600560009054906101000a900473ffffffffffffffffffffffffffffffffffffffff16905090565b6060600480546109999061199b565b80601f01602080910402602001604051908101604052809291908181526020018280546109c59061199b565b8015610a125780601f106109e757610100808354040283529160200191610a12565b820191906000526020600020905b8154815290600101906020018083116109f557829003601f168201915b5050505050905090565b610a24610dc3565b73ffffffffffffffffffffffffffffffffffffffff16610a42610960565b73ffffffffffffffffffffffffffffffffffffffff1614610a98576040517f08c379a0000000000000000000000000000000000000000000000000000000008152600401610a8f90611751565b60405180910390fd5b8060068190555050565b60008060016000610ab1610dc3565b73ffffffffffffffffffffffffffffffffffffffff1673ffffffffffffffffffffffffffffffffffffffff16815260200190815260200160002060008573ffffffffffffffffffffffffffffffffffffffff1673ffffffffffffffffffffffffffffffffffffffff16815260200190815260200160002054905082811015610b6e576040517f08c379a0000000000000000000000000000000000000000000000000000000008152600401610b65906117d1565b60405180910390fd5b610b82610b79610dc3565b85858403610dcb565b600191505092915050565b6000610ba1610b9a610dc3565b8484610f96565b6001905092915050565b60075434610bb7610670565b610bc19190611863565b11158015610bcf5750600034115b610c0e576040517f08c379a0000000000000000000000000000000000000000000000000000000008152600401610c0590611711565b60405180910390fd5b610c3833670de0b6b3a764000060065434610c2991906118b9565b610c3391906118b9565b610460565b565b6000600160008473ffffffffffffffffffffffffffffffffffffffff1673ffffffffffffffffffffffffffffffffffffffff16815260200190815260200160002060008373ffffffffffffffffffffffffffffffffffffffff1673ffffffffffffffffffffffffffffffffffffffff16815260200190815260200160002054905092915050565b610cc9610dc3565b73ffffffffffffffffffffffffffffffffffffffff16610ce7610960565b73ffffffffffffffffffffffffffffffffffffffff1614610d3d576040517f08c379a0000000000000000000000000000000000000000000000000000000008152600401610d3490611751565b60405180910390fd5b600073ffffffffffffffffffffffffffffffffffffffff168173ffffffffffffffffffffffffffffffffffffffff161415610dad576040517f08c379a0000000000000000000000000000000000000000000000000000000008152600401610da4906116b1565b60405180910390fd5b610db681611217565b50565b505050565b505050565b600033905090565b600073ffffffffffffffffffffffffffffffffffffffff168373ffffffffffffffffffffffffffffffffffffffff161415610e3b576040517f08c379a0000000000000000000000000000000000000000000000000000000008152600401610e32906117b1565b60405180910390fd5b600073ffffffffffffffffffffffffffffffffffffffff168273ffffffffffffffffffffffffffffffffffffffff161415610eab576040517f08c379a0000000000000000000000000000000000000000000000000000000008152600401610ea2906116d1565b60405180910390fd5b80600160008573ffffffffffffffffffffffffffffffffffffffff1673ffffffffffffffffffffffffffffffffffffffff16815260200190815260200160002060008473ffffffffffffffffffffffffffffffffffffffff1673ffffffffffffffffffffffffffffffffffffffff168152602001908152602001600020819055508173ffffffffffffffffffffffffffffffffffffffff168373ffffffffffffffffffffffffffffffffffffffff167f8c5be1e5ebec7d5bd14f71427d1e84f3dd0314c0f7b2291e5b200ac8c7c3b92583604051610f899190611811565b60405180910390a3505050565b600073ffffffffffffffffffffffffffffffffffffffff168373ffffffffffffffffffffffffffffffffffffffff161415611006576040517f08c379a0000000000000000000000000000000000000000000000000000000008152600401610ffd90611791565b60405180910390fd5b600073ffffffffffffffffffffffffffffffffffffffff168273ffffffffffffffffffffffffffffffffffffffff161415611076576040517f08c379a000000000000000000000000000000000000000000000000000000000815260040161106d90611691565b60405180910390fd5b611081838383610db9565b60008060008573ffffffffffffffffffffffffffffffffffffffff1673ffffffffffffffffffffffffffffffffffffffff16815260200190815260200160002054905081811015611107576040517f08c379a00000000000000000000000000000000000000000000000000000000081526004016110fe906116f1565b60405180910390fd5b8181036000808673ffffffffffffffffffffffffffffffffffffffff1673ffffffffffffffffffffffffffffffffffffffff16815260200190815260200160002081905550816000808573ffffffffffffffffffffffffffffffffffffffff1673ffffffffffffffffffffffffffffffffffffffff168152602001908152602001600020600082825461119a9190611863565b925050819055508273ffffffffffffffffffffffffffffffffffffffff168473ffffffffffffffffffffffffffffffffffffffff167fddf252ad1be2c89b69c2b068fc378daa952ba7f163c4a11628f55a4df523b3ef846040516111fe9190611811565b60405180910390a3611211848484610dbe565b50505050565b6000600560009054906101000a900473ffffffffffffffffffffffffffffffffffffffff16905081600560006101000a81548173ffffffffffffffffffffffffffffffffffffffff021916908373ffffffffffffffffffffffffffffffffffffffff1602179055508173ffffffffffffffffffffffffffffffffffffffff168173ffffffffffffffffffffffffffffffffffffffff167f8be0079c531659141344cd1fd0a4f28419497f9722a3daafe3b4186f6b6457e060405160405180910390a35050565b6000813590506112ec81611d58565b92915050565b60008135905061130181611d6f565b92915050565b60006020828403121561131957600080fd5b6000611327848285016112dd565b91505092915050565b6000806040838503121561134357600080fd5b6000611351858286016112dd565b9250506020611362858286016112dd565b9150509250929050565b60008060006060848603121561138157600080fd5b600061138f868287016112dd565b93505060206113a0868287016112dd565b92505060406113b1868287016112f2565b9150509250925092565b600080604083850312156113ce57600080fd5b60006113dc858286016112dd565b92505060206113ed858286016112f2565b9150509250929050565b60006020828403121561140957600080fd5b6000611417848285016112f2565b91505092915050565b61142981611913565b82525050565b61143881611925565b82525050565b600061144982611847565b6114538185611852565b9350611463818560208601611968565b61146c81611a2b565b840191505092915050565b6000611484602383611852565b915061148f82611a3c565b604082019050919050565b60006114a7602683611852565b91506114b282611a8b565b604082019050919050565b60006114ca602283611852565b91506114d582611ada565b604082019050919050565b60006114ed602683611852565b91506114f882611b29565b604082019050919050565b6000611510601f83611852565b915061151b82611b78565b602082019050919050565b6000611533602883611852565b915061153e82611ba1565b604082019050919050565b6000611556602083611852565b915061156182611bf0565b602082019050919050565b6000611579601683611852565b915061158482611c19565b602082019050919050565b600061159c602583611852565b91506115a782611c42565b604082019050919050565b60006115bf602483611852565b91506115ca82611c91565b604082019050919050565b60006115e2602583611852565b91506115ed82611ce0565b604082019050919050565b6000611605601f83611852565b915061161082611d2f565b602082019050919050565b61162481611951565b82525050565b6116338161195b565b82525050565b600060208201905061164e6000830184611420565b92915050565b6000602082019050611669600083018461142f565b92915050565b60006020820190508181036000830152611689818461143e565b905092915050565b600060208201905081810360008301526116aa81611477565b9050919050565b600060208201905081810360008301526116ca8161149a565b9050919050565b600060208201905081810360008301526116ea816114bd565b9050919050565b6000602082019050818103600083015261170a816114e0565b9050919050565b6000602082019050818103600083015261172a81611503565b9050919050565b6000602082019050818103600083015261174a81611526565b9050919050565b6000602082019050818103600083015261176a81611549565b9050919050565b6000602082019050818103600083015261178a8161156c565b9050919050565b600060208201905081810360008301526117aa8161158f565b9050919050565b600060208201905081810360008301526117ca816115b2565b9050919050565b600060208201905081810360008301526117ea816115d5565b9050919050565b6000602082019050818103600083015261180a816115f8565b9050919050565b6000602082019050611826600083018461161b565b92915050565b6000602082019050611841600083018461162a565b92915050565b600081519050919050565b600082825260208201905092915050565b600061186e82611951565b915061187983611951565b9250827fffffffffffffffffffffffffffffffffffffffffffffffffffffffffffffffff038211156118ae576118ad6119cd565b5b828201905092915050565b60006118c482611951565b91506118cf83611951565b9250817fffffffffffffffffffffffffffffffffffffffffffffffffffffffffffffffff0483118215151615611908576119076119cd565b5b828202905092915050565b600061191e82611931565b9050919050565b60008115159050919050565b600073ffffffffffffffffffffffffffffffffffffffff82169050919050565b6000819050919050565b600060ff82169050919050565b60005b8381101561198657808201518184015260208101905061196b565b83811115611995576000848401525b50505050565b600060028204905060018216806119b357607f821691505b602082108114156119c7576119c66119fc565b5b50919050565b7f4e487b7100000000000000000000000000000000000000000000000000000000600052601160045260246000fd5b7f4e487b7100000000000000000000000000000000000000000000000000000000600052602260045260246000fd5b6000601f19601f8301169050919050565b7f45524332303a207472616e7366657220746f20746865207a65726f206164647260008201527f6573730000000000000000000000000000000000000000000000000000000000602082015250565b7f4f776e61626c653a206e6577206f776e657220697320746865207a65726f206160008201527f6464726573730000000000000000000000000000000000000000000000000000602082015250565b7f45524332303a20617070726f766520746f20746865207a65726f20616464726560008201527f7373000000000000000000000000000000000000000000000000000000000000602082015250565b7f45524332303a207472616e7366657220616d6f756e742065786365656473206260008201527f616c616e63650000000000000000000000000000000000000000000000000000602082015250565b7f45524332304361707065643a20546f6b656e2043617020657863656564656400600082015250565b7f45524332303a207472616e7366657220616d6f756e742065786365656473206160008201527f6c6c6f77616e6365000000000000000000000000000000000000000000000000602082015250565b7f4f776e61626c653a2063616c6c6572206973206e6f7420746865206f776e6572600082015250565b7f33302044617973206e6f74207061737365642079657400000000000000000000600082015250565b7f45524332303a207472616e736665722066726f6d20746865207a65726f20616460008201527f6472657373000000000000000000000000000000000000000000000000000000602082015250565b7f45524332303a20617070726f76652066726f6d20746865207a65726f2061646460008201527f7265737300000000000000000000000000000000000000000000000000000000602082015250565b7f45524332303a2064656372656173656420616c6c6f77616e63652062656c6f7760008201527f207a65726f000000000000000000000000000000000000000000000000000000602082015250565b7f45524332303a206d696e7420746f20746865207a65726f206164647265737300600082015250565b611d6181611913565b8114611d6c57600080fd5b50565b611d7881611951565b8114611d8357600080fd5b5056fea26469706673582212205836b646a5e912e30340dd6e69d7b38eeb787926ac0146003a2aa094a3d477b864736f6c63430008040033",
  "immutableReferences": {},
  "source": "//SPDX-License-Identifier: Unlicense\r\n\r\npragma solidity ^0.8.4;\r\n\r\n\r\nimport \"@openzeppelin/contracts/token/ERC20/ERC20.sol\";\r\nimport \"@openzeppelin/contracts/access/Ownable.sol\";\r\n\r\n\r\n/* Please complete the ERC20 token with the following extensions;\r\n1) - Capped Token: The minting token should not be exceeded from the Capped limit.\r\n\r\n\r\n2)\r\n- TimeBound Token: The token will not be transferred until the given time exceed. For example Wages payment will be due after 30\r\ndays.\r\n\r\n\r\n3) should be deployed by using truffle or hardhat on any Ethereum test network\r\n*/\r\n\r\n// ==========================================================================================================\r\n\r\n\r\n\r\ncontract GalaxyToken is ERC20,Ownable{\r\n\r\n    // address owner;\r\n    uint private rate;\r\n    uint private tokenCap = 2000000 * 100 ** 18;\r\n    uint private deployedtime;\r\n    address tokenAddress;\r\n    \r\n  constructor() ERC20(\"Galaxy\", \"GXY\"){\r\n        _mint(msg.sender, 1000000 * (10 ** uint256(decimals())));\r\n        rate = 100;\r\n        deployedtime =  block.timestamp;\r\n        // IERC20 tcontract = IERC20(tokenAddress);\r\n    }\r\n    \r\n      modifier etherValue {\r\n      require( msg.value > 0);\r\n      _;\r\n  }\r\n  \r\n   \r\n  // ____________________ Task 3b-1 ____________________\r\n  function getTokens() payable external {\r\n    \r\n    require(ERC20.totalSupply() + msg.value <= tokenCap && msg.value > 0 , \"ERC20Capped: Token Cap exceeded\");\r\n    _mint(msg.sender, msg.value * rate * 10 ** 18);\r\n      \r\n  }\r\n  \r\n  \r\n  // ____________________ Task 3b-b ____________________\r\n  function transferfun(address recipient, uint256 amount) external  {\r\n        require(block.timestamp >= deployedtime + 30 days, \"30 Days not passed yet\");\r\n        _transfer(_msgSender(), recipient, amount);\r\n    }\r\n  \r\n    // ____________________ Fallback ____________________\r\n  \r\n  fallback() external payable etherValue(){\r\n      _mint(msg.sender, msg.value * rate * 10 ** 18);\r\n  }\r\n\r\n   receive() external payable{\r\n    }\r\n   \r\n    \r\n    // ____________________ Rate Change ____________________\r\n    function changePrice(uint _rate) external onlyOwner{\r\n    rate = _rate;\r\n  }\r\n}",
  "sourcePath": "D:\\25 - Testing Q3\\Assignments\\A3bT\\contracts\\GalaxyToken.sol",
  "compiler": {
    "name": "solc",
    "version": "0.8.4+commit.c7e474f2.Emscripten.clang"
  },
  "schemaVersion": "3.4.3",
  "updatedAt": "2021-09-01T15:22:56.394Z",
  "devdoc": {
    "kind": "dev",
    "methods": {
      "allowance(address,address)": {
        "details": "See {IERC20-allowance}."
      },
      "approve(address,uint256)": {
        "details": "See {IERC20-approve}. Requirements: - `spender` cannot be the zero address."
      },
      "balanceOf(address)": {
        "details": "See {IERC20-balanceOf}."
      },
      "decimals()": {
        "details": "Returns the number of decimals used to get its user representation. For example, if `decimals` equals `2`, a balance of `505` tokens should be displayed to a user as `5.05` (`505 / 10 ** 2`). Tokens usually opt for a value of 18, imitating the relationship between Ether and Wei. This is the value {ERC20} uses, unless this function is overridden; NOTE: This information is only used for _display_ purposes: it in no way affects any of the arithmetic of the contract, including {IERC20-balanceOf} and {IERC20-transfer}."
      },
      "decreaseAllowance(address,uint256)": {
        "details": "Atomically decreases the allowance granted to `spender` by the caller. This is an alternative to {approve} that can be used as a mitigation for problems described in {IERC20-approve}. Emits an {Approval} event indicating the updated allowance. Requirements: - `spender` cannot be the zero address. - `spender` must have allowance for the caller of at least `subtractedValue`."
      },
      "increaseAllowance(address,uint256)": {
        "details": "Atomically increases the allowance granted to `spender` by the caller. This is an alternative to {approve} that can be used as a mitigation for problems described in {IERC20-approve}. Emits an {Approval} event indicating the updated allowance. Requirements: - `spender` cannot be the zero address."
      },
      "name()": {
        "details": "Returns the name of the token."
      },
      "owner()": {
        "details": "Returns the address of the current owner."
      },
      "renounceOwnership()": {
        "details": "Leaves the contract without owner. It will not be possible to call `onlyOwner` functions anymore. Can only be called by the current owner. NOTE: Renouncing ownership will leave the contract without an owner, thereby removing any functionality that is only available to the owner."
      },
      "symbol()": {
        "details": "Returns the symbol of the token, usually a shorter version of the name."
      },
      "totalSupply()": {
        "details": "See {IERC20-totalSupply}."
      },
      "transfer(address,uint256)": {
        "details": "See {IERC20-transfer}. Requirements: - `recipient` cannot be the zero address. - the caller must have a balance of at least `amount`."
      },
      "transferFrom(address,address,uint256)": {
        "details": "See {IERC20-transferFrom}. Emits an {Approval} event indicating the updated allowance. This is not required by the EIP. See the note at the beginning of {ERC20}. Requirements: - `sender` and `recipient` cannot be the zero address. - `sender` must have a balance of at least `amount`. - the caller must have allowance for ``sender``'s tokens of at least `amount`."
      },
      "transferOwnership(address)": {
        "details": "Transfers ownership of the contract to a new account (`newOwner`). Can only be called by the current owner."
      }
    },
    "version": 1
  },
  "userdoc": {
    "kind": "user",
    "methods": {},
    "version": 1
  }
}